S011000074756E6E656C5463702E7372656356
S1130000904C0020F52A0000F12A0000F12A00009B
S113001000000000000000000000000000000000DC
S1130020000000000000000000000000D92C0000C7
S113003000000000000000003D2D0000812D0000A4
S1130040F12A0000F12A0000F12A0000F12A000040
S1130050F12A0000F12A0000F12A0000F12A000030
S1130060F12A0000351D0000451D0000551D00004B
S1130070651D0000751D0000851D0000F12A0000AB
S1130080F12A0000F12A0000F12A0000F12A000000
S1130090F12A00000000000000000000F12A000026
S11300A0F12A0000F12A0000F12A0000F12A0000E0
S11300B00000000010B5064C2378002B07D1054B37
S11300C0002B02D0044800E000BF0123237010BDC0
S11300D03002002000000000705E0000084B10B5E4
S11300E0002B03D00749084800E000BF0748036815
S11300F0002B00D110BD064B002BFBD09847F9E72D
S11301000000000034020020705E0000705E0000F9
S11301100000000022490A78531CDBB20B7021490D
S11301208A5C824223D003000D3B5A4253411C4A4D
S113013013701D490A78531CDBB20B701B498A5C8F
S113014082421AD003000D3B5A425341164A13709F
S113015017490A78531CDBB20B7016498A5C824239
S113016014D00D3843425841114B18707047022B7C
S1130170DFD100220A4B1A70DBE7062BE8D10022FC
S1130180094B1A7001320C4B1A70E1E7092BEDD1BF
S11301900022074B1A700132084B1A70E6E7C0467A
S11301A05C020020005900005D0200200459000098
S11301B05B020020F458000059020020580200207D
S11301C010B50D4B186000220121C8200B4CA0472C
S11301D00B4B186000220121C820A047094B18606E
S11301E0094B9847094C2000094B9847094B9847FD
S11301F02000094B984710BD5402002049300000EC
S11302004C0200205002002079060000E85800004B
S1130210B9070000F90700000D09000070B5A2B08D
S113022004000D008122002101A8244B9847244B8F
S11302301B68A400E6583000224B9847002D02D0DA
S11302402B78002B0BD18022310001A81E4B98473C
S113025001AB1B780520002B26D122B070BD000411
S1130260040C2800174B9847631C18187F28EFD8F4
S11302708022310001A8154B984701AB9C46644489
S1130280013C2378202B09D060460E4B984701ABE4
S11302909C46604402220E490E4B98478022290056
S11302A001A80A4B9847D3E70B4B186800210B4B66
S11302B0984701A80A4B98470120CEE7B7450000AC
S11302C05402002071460000A94600007F46000049
S11302D0F0580000A54500004C020020CD2F00007E
S11302E0B9070000F0B5CE46474680B585B000900A
S11302F089461F4B1B78002B0AD000221C4B1A7016
S113030005230193019805B00CBC90469946F0BDB5
S1130310184B1B7802220192002B04D00022154BAB
S11303201A7003230193009B002BEBD0002202AB35
S1130330DA71009E002402ABDD1D0F4F0F4B98466F
S113034004E00134A4B22B78337001360023002278
S113035029003868C047002801D04C45F1D100235A
S1130360009A1355002CCDD004330193CAE7C0463C
S113037058020020590200204C02002029330000BA
S113038030B583B014001D0006AB1B88104A1278E8
S1130390022A0ED000220E4B1A700E4B98470128E9
S11303A003D005220A4B1A700DE00222084B1A7082
S11303B009E06A4606320021118029002000064C1B
S11303C0A047034B1870024B187803B030BDC046E9
S11303D05A0200201D020000E502000010B5014B86
S11303E0984710BD6D07000030B583B06B46DC1D27
S11303F0D871074B9847074B186800230022210047
S1130400054DA84720780121044B984703B030BD1F
S1130410150100005002002061320000A513000005
S113042030B583B06B46DC1DD871074B9847074B3A
S11304301868002300222100054DA84720780121D7
S1130440044B984703B030BD150100004C02002056
S113045061320000A513000070B5064E064D074C2E
S113046031002800A0470028FAD1024B1878044B29
S1130470984770BD94020020600200202D220000E5
S11304800919000070B590B00120344B9847344BE3
S113049018603449344B98478023DB0500930023CC
S11304A00193FF2269460A8100228B72CB720121DB
S11304B024206C46215401302154253163540131E8
S11304C063540A93053163540131635405932382C1
S11304D0E3762276227762761323A3766277E1238A
S11304E05B020893C4239B03039301235B420C9395
S11304F00D931E4B0E931E4B0F931E4D1E4C6A46BE
S11305001E492800A0470028F9D11A4D2C68200064
S11305101B4B98471F2318401E3B8340194A136006
S11305202A68D369002BFCD1236802221343236079
S1130530104C013A14492000144B98473122A35C13
S113054002210B43A354124E0A4D124C31002800D1
S1130550A0470028FAD110B070BDC0460D3200008B
S1130560980200200C590000D1340000030036002A
S11305700300370060020020951D0000001C0042AB
S1130580051D000000E100E05904000015220000F0
S1130590940200202D220000F8B506000D000C4B3B
S11305A0186800230122524200210A4CA0470A4C39
S11305B00A4F2A0031002000B8470028F9D1044B23
S11305C01868002300220021054CA0470020F8BD34
S11305D09802002029330000600200200521000059
S11305E09930000070B504000E4B186800230122F6
S11305F0524200210C4DA8472378002B0AD00B4D02
S11306000B4E21782800B0470028FAD10134237812
S1130610002BF6D1034B1868002300220021054C5F
S1130620A04770BD9802002029330000600200201A
S1130630D92000009930000010B5024CA0470248B0
S1130640A04710BDE50500001859000070B5064E1E
S1130650064D074C31002800A0470028FAD1024B70
S11306601878044B984770BDD00200209C020020EB
S11306702D2200002104000070B590B08023DB051A
S1130680009300230193FF2269460A8100228B72A2
S1130690CB72962189010891012124206C462154B2
S11306A00130215425316354013163540A930531D7
S11306B063540131635405932382E37622762277CF
S11306C062761323A376627780235B0203931C4B29
S11306D00C9301235B420D931A4A0E920F931A4D09
S11306E01A4C6A461A492800A0470028F9D1164D29
S11306F02C682000174B98471F2318401E3B83404B
S1130700154A13602A68D369002BFCD1236802229E
S1130710134323600C4C013A10492000104B9847B6
S11307203122A35C02210B43A3540E4E064D0E4C02
S113073031002800A0470028FAD110B070BDC0468F
S113074002001000020012009C020020951D00000F
S1130750000C0042051D000000E100E04D06000011
S113076015220000D00200202D220000F8B506005A
S11307700D00044C044F2A0031002000B847002823
S1130780F9D1F8BD9C0200200521000070B50400D9
S11307900378002B0AD0064D064E21782800B04776
S11307A00028FAD101342378002BF6D170BDC0465D
S11307B09C020020D920000010B5024CA04702483A
S11307C0A04710BD8D0700001859000070B5064EF3
S11307D0064D074C31002800A0470028FAD1024BEF
S11307E01878044B984770BD08030020D4020020F9
S11307F02D220000E903000070B590B08023DB05D2
S1130800009300230193FF2269460A8100228B7220
S1130810CB72012124206C4621540130215425310E
S11308206354013163540A930531635401316354B1
S113083005932382E3762276227762761323A376C6
S11308406277E1235B020893C4239B03039304238D
S11308500C9301330D93063B0E930F93174D184CD5
S11308606A4618492800A0470028F9D1134D2C687E
S11308702000154B98471F2318401E3B8340134A02
S113088013602A68D369002BFCD123680222134326
S113089023600A4C013A0E4920000E4B984731223E
S11308A0A35C02210B43A3540B4E044D0B4C3100AB
S11308B02800A0470028FAD110B070BDD40200204F
S11308C0951D000000080042051D000000E100E045
S11308D0CD07000015220000080300202D2200008F
S11308E070B504000378002B0AD0064D064E21781B
S11308F02800B0470028FAD101342378002BF6D120
S113090070BDC046D4020020D920000010B5024CAE
S1130910A0470248A04710BDE10800001859000094
S11309200300303BDBB2092B04D9FF230200613AF8
S1130930052A01D9180070475738C3B2FAE70000F6
S113094070B584B00120184B9847184E3060184990
S1130950184B984700230122524200213068164C5C
S1130960A0470024039402940194012300930023DC
S11309708022920011491248124DA847124B984701
S1130980124D28603068002300220021104EB04729
S11309902868104B98472C600F4B18780438424253
S11309A04241D0B204B070BD0D32000034030020C7
S11309B090590000D13400002933000098590000F8
S11309C0BD0C000005360000393F00003003002054
S11309D099300000C53C00002C03002070B50500D0
S11309E0104B186800230122524200210E4CA047EC
S11309F00E4B1968002912D00B780024002B08D163
S1130A00084B1868002300220021094DA847200044
S1130A1070BD10222800074B98470134F0E70024EA
S1130A20EEE7C046340300202933000020030020F1
S1130A3099300000A9460000044B1B780A3BDBB246
S1130A40002008229A424041C0B270472C03002083
S1130A50F8B505000C001D4B1B780020042B00D0BA
S1130A60F8BD1B4B1B68002B2BD01A4B1B68002BAB
S1130A7029D0194E00230122524200213068174F19
S1130A80B847134B186820222900154DA847114B6D
S1130A90186820222100A84706220C4B1A70114B1B
S1130AA09847114C206030680023002200210F4D2C
S1130AB0A84720680E4B9847002323600D4B9847A6
S1130AC0CEE70020CCE70020CAE7C0462C03002074
S1130AD028030020240300203403002029330000CD
S1130AE0A9460000393F000030030020993000007F
S1130AF0C53C0000390A0000F8B505000C00164B8F
S1130B009847FF23002801D11800F8BD134E002395
S1130B100122524200213068114FB847114B186826
S1130B2020222900104B9847104B1C800D22104B9B
S1130B301A70104B9847104C206030680023002234
S1130B4000210E4DA84720680D4B984700232360D1
S1130B500C4B1B78D8E7C046390A00003403002048
S1130B602933000018030020A94600003A0300209E
S1130B702C030020393F000030030020993000008E
S1130B80C53C000048000020014B18887047C0464F
S1130B9038030020F8B505000F001600194B18683B
S1130BA00023012252420021174CA047174B1B7807
S1130BB000240F2B08D0134B1868002300220021B7
S1130BC0134DA8472000F8BD124B1B882B41DB07AF
S1130BD0F1D51120104B9847040033002A000F4927
S1130BE00F4DA84720000F4B984781B220000E4DAF
S1130BF0A84731003800A84720000C4B984701242F
S1130C00D9E7C04634030020293300002C03002018
S1130C1099300000380300201D150000A059000081
S1130C20C945000071460000DD0300001D160000E8
S1130C30F8B507000D001600164B186800230122B2
S1130C4052420021144CA047144B1B780024162B4D
S1130C5008D0104B1868002300220021104DA8472B
S1130C602000F8BD11200F4B984704003A000E49AC
S1130C700E4B984720000E4B984781B220000D4F31
S1130C80B84731002800B84720000B4B984701248F
S1130C90DFE7C04634030020293300002C03002082
S1130CA0993000001D15000088590000C945000056
S1130CB071460000DD0300001D160000F0B5C646B5
S1130CC000B5F4B02120C84CA047C84F386021209B
S1130CD0A047C74E30601120A047C64B18602120A2
S1130CE0A047C54B18600820A047C44B18600822D1
S1130CF0C349C44DA8478120A047C34B1860412075
S1130D00A047C24B18600122C14B1A700022C14B8C
S1130D101A80FF32C04B1A703868F93ABF49A847A5
S1130D2030680E22BE49A847BE48BF4B9847BF4F04
S1130D30BF4EB74D9CE0FA239B0000930023002292
S1130D4000210020BB4CA04703280AD000D285E034
S1130D500538C0B2012800D980E00122AC4B1A70DA
S1130D607CE00222AA4B1A7078E0FA239B000093DD
S1130D700023002200210120AE4CA047032808D004
S1130D806CD30538C0B2012868D80122A04B1A7070
S1130D9064E003229E4B1A7060E0FA239B000093E8
S1130DA000230022A4490420A24CA047032808D011
S1130DB054D30538C0B2012850D80122944B1A707C
S1130DC04CE00C22924B1A7048E0FA239B000093EB
S1130DD00023002200210320964CA047032808D0BA
S1130DE03CD30538C0B2012838D80122884B1A7088
S1130DF034E00022874B1A80FF32874B1A70FB3A8B
S1130E00834B1A702AE08D4B1868002826D08C4B2F
S1130E10984723E02520744B984704000490734BB3
S1130E201A688849884B9847FA239B00009300234B
S1130E300022210005207F4CA047032808D00AD3B4
S1130E400538C0B2012806D80422714B1A7002E09A
S1130E5008226F4B1A7004987C4B9847734B1868A0
S1130E600023002200217A4CA0470A20794B98479E
S1130E7000230122524200213868B0472B78192BF5
S1130E8000D954E29B00744AD3589F46584B1968C2
S1130E90FA239B000093002300220620654CA04700
S1130EA0032808D0DAD30538C0B20128D6D80422E2
S1130EB0574B1A70D2E70922554B1A70CEE781229C
S1130EC0002111A8654B9847484B1968644B00935F
S1130ED0802311AA0720574CA047042806D0BDD36D
S1130EE00628BBD804224A4B1A70B7E711A85D4BF9
S1130EF0984700239C4611AC05E01900E25C3A2AAD
S1130F000ED00133DBB21A00834211D261460029AC
S1130F10F3D1E15C30390929EFD89446A444ECE7D5
S1130F20002211AB5A54334B186861464E4B984714
S1130F300022384B1A80FF32374B1A70F53A344B83
S1130F401A708BE73D4B1868002887D03C4B9847B4
S1130F5084E72722002107A8404CA0474122002112
S1130F6011A8A047414B1B88234A1268404907A88F
S1130F70354CA0473A4B0093402311AA07A90920F6
S1130F802C4CA047042808D000D267E7062800D9D3
S1130F9064E70A221E4B1A7060E7132402AB9C46D6
S1130FA06444FF2323702200324911A8324B98472E
S1130FB02078324B984720700F280BD8164B1870A6
S1130FC0144A0123834011880B4313800E22104BD3
S1130FD01A7043E7FF22104B1A7000220D4B1A803F
S1130FE00A320B4B1A7039E71D1500002803002044
S1130FF02403002020030020180300200C030020F9
S1131000805A0000A5450000140300201C030020A2
S11310102C0300203803002048000020885A0000D8
S1131020905A000000000020C10100003403002099
S11310302933000081030000A05A0000300300207F
S1131040F1370000A45A0000C94500001D16000035
S113105099300000293B00001C590000B7450000EE
S1131060983A000071460000614600003A030020EF
S1131070AC5A0000B45A00000D46000021090000DB
S11310800220FF30AF4B984704008122002111A8B1
S1131090AD4B9847AD4B1A68AD4B1B6800930023CA
S11310A0AC4905942000AC4CA047AC4B0093802382
S11310B011AA05990B20AA4CA047042806D025D3D1
S11310C0062823D80A22A74B1A701FE011A8A64BA2
S11310D098470024002311A904E0CA5C3A2A12D0DC
S11310E00133DBB2049383420DD2002CF5D1CA5CE8
S11310F09046302252429446E0444246092AECD8B3
S1131100049A8C18E9E71622964B1A700598974BA7
S11311109847A3E6FA239B000093002300229449F6
S11311200A208F4CA04703280AD000D296E605383F
S1131130C0B2012800D991E60A228A4B1A708DE6C2
S11311400F22884B1A7089E600208A4B98470028A2
S113115003D11622834B1A7080E68822002111A83D
S1131160794B98470023002211A90020824CA04704
S1131170012800D072E60220FF30724B984711AB71
S11311801A7884215958019181215B5C00933D2395
S113119002A98C466344794904906F4CA0476F4B75
S11311A000930023002204990D206D4CA0470428CD
S11311B009D004D3062802D80A226A4B1A7004986C
S11311C06A4B98474AE600206A4B98470028F6D1B4
S11311D01622644B1A70F2E70020664B98470028E9
S11311E003D116225F4B1A7038E6C6225200002142
S11311F011A8554B98470023002211A900205E4CEA
S1131200A047012800D029E60220FF304D4B984723
S113121011AB1A788A21FF31595C0291C42149002B
S1131220595C019184215B5800933D2302A98C46AB
S1131230634453490490484CA047484B009300230F
S1131240002204990C20464CA047042809D004D35A
S1131250062802D80A22434B1A700498434B984735
S1131260FCE502ABC0229B181A8811AB187833A98D
S1131270444B984700203F4B98470028EDD1162255
S1131280384B1A70E9E7404B1868002801D03F4BEF
S113129098473F4B1B88FA225200934203D80133EC
S11312A03B4A1380DAE50022394B1A8010322D4B69
S11312B01A70D3E5C922002111A8234B9847274B64
S11312C00093C82311AA33490820254CA0470428B9
S11312D008D000D2C2E5062800D9BFE50A22214B76
S11312E01A70BBE5462311AAD05C2B4B98470F28F4
S11312F00BD82A4B18702A4A0123834011880B43C8
S113130013800F22174B1A70A8E5FF22234B1A7083
S11313100022234B1A800A32124B1A709EE51A4B94
S11313201868002800D199E5184B984796E5164BA4
S11313301868002801D0154B98470122094B1A70F0
S11313408CE5C0461D150000B745000014030020BD
S11313501C030020CC5A0000C9450000983A000044
S1131360810300002C030020714600001D160000BC
S1131370E05A0000B134000029330000E45A0000B0
S1131380F45A0000310C000030030020F137000053
S11313903C030020045B00002109000048000020F9
S11313A03803002070B50400344B1B78002B4FD158
S11313B0334B1B78012B1ED9022B2CD0062B4DD876
S11313C00200303A092A3AD82E4A10685A1CD2B27E
S11313D02B490A70C454072A40D103302A4A2B49A6
S11313E02B4B98470023264A13702A4A1370012274
S11313F0224B1A7032E0234A1268D15C814206D033
S113140013781C1A63425C411D4B1C7026E00133A7
S11314101B4A137022E01B4B1D681F4B9847A87092
S11314200F2805D80322164B1A701C4B187015E0B0
S11314302B781C1B63425C41114B1C700EE0114B5A
S11314401B681B781C1A63425C410D4B1C7005E041
S1131450104B1B780C4A1268934200D370BD0D4D9B
S113146001332B700E4B98472A78074B1B689A421E
S1131470F4D10022014B1A70F0E7C046100300209B
S1131480450300200C030020400300208459000081
S11314900D460000440300202109000048000020FC
S11314A02D19000000B583B001AB80221A700A78B0
S11314B05A704A789A708A78DA701900014B984702
S11314C003B000BD912A000010B5124A00E01A00D2
S11314D013688342FBD351685418A04208D0416872
S11314E04418A34209D00360904200D0106010BD9C
S11314F04068411851601000F1E7074C2468A3428A
S113150006D05B685918416013681B680360EBE7F9
S11315100360E9E7602A002048030020F8B50400CE
S1131520354B9847354B1B68002B17D0344B1D683F
S11315302C425BD10027002C4ED0220008325307E6
S113154002D007239A4308320027002A44D02D4BA7
S11315501E68B2424CD82C490C681DE007222B4B64
S11315600833934328490B6000224A609C21890177
S11315705918224801609C2080014A601A50586022
S11315801960204A1368083B1360802212061C4B22
S11315901A60CBE721001C0063689A4202D92368D1
S11315A0002BF7D1154B1B689C4223D00F680837DA
S11315B023680B6063689B1A102B11D86268B61AF3
S11315C010490E60124909688E4201D210490E601A
S11315D015436560002323600E4B98473800F8BD1F
S11315E0A018436062600C4B9847E7E70027F3E7D5
S11315F00027F1E70027EFE7D53800004803002073
S11316005C2A00204C000020602A00204C030020AB
S113161050000020293A0000C914000010B5002829
S113162020D00300083B5B680F4A12681A4201D1BC
S113163072B6FEE7010008390968002901D072B6C4
S1131640FEE70838040093434360084B9847084A70
S1131650636811688C46634413602000054B984707
S1131660054B984710BDC0465C2A0020D5380000C1
S11316704C000020C9140000293A0000F0B5DE46F1
S113168057464E464546E0B585B003AC012323706A
S113169000236370A370210011205C4DA8475C4EA9
S11316A080239B02736121001B20A84780231B0514
S11316B0B36121002320A8470822564B9A61564B58
S11316C09847564D2800564CA047564E3000A04728
S11316D05548A0475548A0473000A0472800A047D8
S11316E05348A047534B9847002807D05248534BC0
S11316F09847534B9A46534B984609E052484F4BF0
S11317009847F6E72000514B98476420504B984780
S1131710504B984700281DD14F48414B98474F499B
S11317204F48504B9847002810D01020454B9847FD
S113173004004D4B98470028E4D03F483F4DA8474C
S11317404A48374B98472000A847DBE73E483B4BC5
S11317509847DAE7D047002812D14548304B9847DC
S113176044494548454B9847454B18700F2803D8C2
S11317703148324B9847C8E73348304B9847C4E761
S1131780002203AB1A704120C047060001900500F7
S1131790002403AF3B4B9B463B4B9946002300225E
S11317A0390058460068C84700280DD03B7833708C
S11317B00134E4B20136402CF0D1A2B2304B187897
S11317C00199324B984701E0002CF6D1002403AE76
S11317D02F4B99462C4F00230022310048460068C5
S11317E0B84700280BD033782B700134E4B20135AC
S11317F0402CF0D1A1B20198264B984701E0002C6F
S1131800F8D10198114B98477FE7C046A514000012
S11318100044004180440041850400001859000040
S1131820E5050000245B0000485B00006C5B0000E1
S1131830905B000041090000A05B00003906000035
S1131840890B00001D150000A45B00001D1600009C
S1131850293B0000390A0000A85B0000905A0000F0
S1131860885A0000510A0000DD090000B85B00003E
S1131870C45B000028230000D85B0000F90A0000C4
S1131880702A0020682A002029330000950B0000EC
S11318906C2A00209905000030B585B00022012192
S11318A04020104DA847104C206000220121402008
S11318B0A8470E4D286020680D490E4CA0472868A3
S11318C00D49A0470023039302930193023300932D
S11318D0002380229200094909480A4CA04705B018
S11318E030BDC046493000006C2A0020682A002020
S11318F0085B0000D1340000105B00001C5B00009A
S11319007D1600000536000010B582B06B46D91D67
S11319100870044B186800230022034CA04702B04F
S113192010BDC046682A00206132000010B582B0A4
S11319306B46D91D0870044B186800230022034C21
S1131940A04702B010BDC0466C2A002061320000DE
S1131950F0B5DE4657464E464546E0B587B080466C
S1131960049116001F000022002300218B463F240F
S113197001202100009601975C4603944446059497
S113198013E02024641A0500E540A84614E0009CF6
S1131990019D121BAB415C464D462C43A346039C60
S11319A045462C430394013925D3202464420C1961
S11319B0E7D40500A540A84604008C40A14692182F
S11319C05B4114001D00059E4F463E40B446049EF4
S11319D047463E40B246664657463E4303D006005D
S11319E0264332002B00009C019D9D42DBD8CED1C2
S11319F09442D8D8CBE7039B5846190007B03CBCA7
S1131A0090469946A246AB46F0BD10B5490840231E
S1131A100024814202D2180010BD1C00091A631C64
S1131A209BB28842F9D94023FF2CF4D814800023B8
S1131A30F1E70000F0B583B00F00160008AA117892
S1131A4004004C434022BC4202D9100003B0F0BD54
S1131A50002B14D1020008000021194CA0470100FA
S1131A603A0000230020174CA04700220123121A39
S1131A708B41120C1B041A4332800022E5E700223A
S1131A80012BF9D10A00002300210D4CA0470200CC
S1131A900B0000920193380000210A4CA047050076
S1131AA080239B0140229842CFD8790FF800009AF6
S1131AB0019BA047EA00821AD2B252032A43DBE711
S1131AC0094500005119000010B582B004000E4B06
S1131AD01B78002B07D0002905D10B4B5B78834280
S1131AE010D01D200CE001A90C701320074B98475F
S1131AF01320074B9847044B5C7001221A70002096
S1131B0002B010BD0020FBE7742A002099290000D0
S1131B100D290000404B984231D00AD93F4B9842DE
S1131B204DD03F4B98425AD03E4B984237D000207C
S1131B3070473D4B98420CD03C4B9842F7D1012959
S1131B4017D000295DD0022915D0032915D0002013
S1131B50EEE7012907D0002951D0022905D0032935
S1131B6005D00020E4E73248E2E73248E0E73248B3
S1131B70DEE73248DCE73248DAE73248D8E70129C1
S1131B8007D000293FD0022905D0032905D0002021
S1131B90CEE72D48CCE72D48CAE72D48C8E70129F0
S1131BA007D0002931D0022905D0032905D000200F
S1131BB0BEE72848BCE72848BAE72848B8E701291F
S1131BC007D0002923D0022905D0032905D00020FD
S1131BD0AEE72348ACE72348AAE72348A8E701294E
S1131BE007D0002915D0022905D0032905D00020EB
S1131BF09EE71E489CE71E489AE71E4898E71E4841
S1131C0096E7032094E71D4892E71D4890E71D4896
S1131C108EE71D488CE7C0460010004200180042C1
S1131C20001C00420014004200080042000C004264
S1131C300300050003000600030007000300010081
S1131C4003001E0003001F000300090003000A0034
S1131C5003000B0003001100030012000300130033
S1131C6003000D0003000E0003000F000300170023
S1131C700300180003001900030004000300080017
S1131C800300100003000C000300160030B587B0F9
S1131C900B4B6A4632CB32C232CB32C2009B8342F8
S1131CA00BD001239A0069465258824206D0013370
S1131CB0062BF7D1002007B030BD0023D8B2FAE7D5
S1131CC0E85B000070470000F0B50A4B1B78002B5E
S1131CD00CD1094F094E0A4D0024DE515A191460E3
S1131CE00433182BF9D10122024B1A708000024BE5
S1131CF0C150F0BD762A0020782A0020C51C0000BF
S1131D00F02B002000B583B009236A461370013319
S1131D105370013393700133D37001331371013362
S1131D205371034B98476B46185603B000BDC04629
S1131D308D1C000010B5024B1B680020984710BD95
S1131D40782A002010B5024B5B680120984710BD2B
S1131D50782A002010B5024B9B680220984710BDDA
S1131D60782A002010B5024BDB680320984710BD89
S1131D70782A002010B5024B1B690420984710BD37
S1131D80782A002010B5024B5B690520984710BDE6
S1131D90782A0020F0B5DE4657464E464546E0B563
S1131DA091B005000C00160029600800BC4B984750
S1131DB0020023680520DB0706D511B03CBC904621
S1131DC09946A246AB46F0BD236817309B07F4D46E
S1131DD0B449086A971C0123BB4003430B620FA953
S1131DE02D27F35D0B701432D3B202931800AE4B5F
S1131DF098470298AD4B9847F05D0021AC4B98474B
S1131E00F37A6B712423F35CAB712523F35CEB71E0
S1131E10F37E2B72337F6B722B6898461800A04BAD
S1131E209847143000220E2306A98C4663441A8076
S1131E30328A02928023DB019A4200D19EE00FD9BC
S1131E40C023DB01029A9A4200D192E080231B0254
S1131E509A4200D01FE1032306930023079308E06E
S1131E6080239B019A4200D015E1102306930F3B77
S1131E70079333680593F368039373690493337E7C
S1131E809B462623F35C9A4673689946002B00D13F
S1131E90A0E080235B05994500D184E0737E002B8C
S1131EA002D0B37E424693732A68029FD369002B03
S1131EB0FCD10E3306AA944663441B8842469381A0
S1131EC0059B039A1343049A13434A4613431F433F
S1131ED05B461B021F4353465B071F432723F35CE8
S1131EE0002B01D104331F43737E9B02327F5202C5
S1131EF01343727F120213432422B25C520413432D
S1131F002522B25C12041343B17AF27A11431943C5
S1131F103389FF2B00D181E08022520417431943F7
S1131F202C23F35C002B03D1624B9B789B0701D5D8
S1131F3080231F432A68D369002BFCD14346596090
S1131F402A68D369002BFCD143461F600EAB802264
S1131F501A7000225A70DA709A70336B0A93736B9A
S1131F600B93B36B0C93F36B02930D9300270AAEA0
S1131F7063E008230693073B07937AE733680593E6
S1131F80F368039373690493337E9B462623F35CBF
S1131F909A4673689946002B18D080235B059945AF
S1131FA001D0002025E02723F35C002B00D075E747
S1131FB0336A1F00C0B2404B984701000E2206ABA3
S1131FC09C46624438003D4B984712E00823069330
S1131FD0002307932723F35C002B0ED0069B00936A
S1131FE0079B0E2206A98C466244B16A306A344FBC
S1131FF0B847002800D0E0E650E7336A1F00C0B2BB
S11320002D4B98470100069B0093079B0E2206A8C0
S11320108446624438002A4FB847EAE7F37E002B2F
S113202000D17DE78023DB041F4379E72000254BA3
S1132030984707E00137042F0DD0F9B2BB00985937
S11320400028F3D0431CF5D00EA90870000CC0B2D0
S11320501D4B9847EEE70023EB602B616B61AB618E
S1132060EB612B62AB626B620022EB85AB85303394
S1132070EA540133EA540133EA540133EA54286838
S1132080074B984704001149114B9847A400114B82
S1132090E550002091E61023069300230793E8E619
S11320A08D1C000000040040992900000D29000047
S11320B0C91A000000200041B52900000B1A0000D5
S11320C0351A0000151B0000912A00003D22000073
S11320D0C91C0000F02B0020C2791C23002A01D166
S11320E018007047C28D92B2173B002AF8D10368DA
S11320F0DA69002AFCD1198502211A7E0A42FCD031
S11321000023EDE7F0B5CE46474680B583B0050021
S113211001911720002A04D103B00CBC90469946C3
S1132120F0BDEB790530002BF6D02C68E369002B69
S1132130FCD1013A93B29946002601271F4B9846D9
S113214011E0731C9BB2019A915D6A79012A17D040
S113215089B21E0028001A4B98474B46013B9BB29C
S11321609946434513D0237E3B42EAD1134B227E4A
S11321703A42E6D1012B19D0013B002BF7D1E0E71D
S11321800236B6B2019AD35C1B021943E2E7237EFE
S11321909B070DD4094B0221227E0A420AD1012B4E
S11321A00AD0013B002BF7D10020B5E71220B3E79A
S11321B00020B1E70020AFE71220ADE7FFFF0000E9
S11321C0D9200000F8B504000D00160007680F4B75
S11321D09847A38D9BB2002B03D00D4B9847052045
S11321E0F8BDA6850A4B9847656205223223E2545E
S11321F02E3BBB75237A002B01D02023BB75637A59
S11322000020002BECD00823BB75E9E7D5230000A0
S113221015240000931C9B00C3185960302101232E
S113222093401A00435C13434354704710B5012292
S1132230014B984710BDC046C5210000F8B5800089
S1132240624BC5582C68E369002BFCD1237EA67D24
S11322501E403023EB5C3122AF5C1F40F30722D5D4
S1132260EB8D9BB2002B1CD0AA6A1378DBB2511CF5
S1132270A962697901290ED09BB2DB05DB0D2385A8
S1132280EB8D013B9BB2EB85002B0CD10133237505
S11322900133A37507E0517809020B430232AA62A5
S11322A0EBE701232375B30706D502232375002228
S11322B03133EA54FB071AD4730765D5AB8D9BB24F
S11322C0002B5FD0638BDBB21A0714D43F22134078
S11322D0002B34D09A0711D51A223223EA54303B0A
S11322E063837B0750D528006B6998474CE028002E
S11322F0EB689847E0E737221340E9E75A0705D52A
S11323001E223223EA542E3B6383EAE7DA0705D51B
S113231013223223EA54313B6383E2E7DA0605D51C
S113232042223223EA54223B6383DAE720221A4210
S1132330D7D021323223EA54123B6383D1E7238D71
S1132340DB05DB0DDAB2696A0A706A6A511C6962DC
S11323506979012910D0AB8D013B9BB2AB85002B71
S113236012D10433237500222E33EA54BB070BD554
S113237028002B69984707E01B0A53706B6A0133E6
S11323806B62E8E704232375F30604D51023237551
S11323902376FB060ED4B30604D5202323752376B7
S11323A03B070BD4330704D5082323752376BB06D8
S11323B008D4F8BD2800EB699847ECE72800AB691E
S11323C09847EFE72B6A28009847F2E7F02B0020A4
S11323D0704700000C4B1B68002B06D1EFF31083F1
S11323E0002B07D00022094B1A70074A13680133E7
S11323F01360704772B6BFF35F8F0022044B1A70EC
S11324000132024B1A70F0E7902A0020942A00202F
S113241054000020084B1A68013A1A601B68002B0C
S113242009D1064B1B78002B05D00122044B1A70EE
S1132430BFF35F8F62B67047902A0020942A002071
S11324405400002010B5082803D880001B4B1B58EB
S11324509F46002030E01A4B18692DE0194B1B6A87
S11324609B059B0F1848D84026E0154B586923E07C
S1132470134B1B6800209B071ED512491022CB6802
S11324801A42FCD00E4B1B685B0701D40F4813E0C3
S113249000200F4B98470A4B9B681B041B0C5843A6
S11324A00AE05023074AD35C00205B0704D5044BA1
S11324B0D86801E08020000210BDC046005C000026
S11324C0982A00200008004000127A00006CDC0208
S11324D0B529000070B50C490B6A047885784078FA
S11324E00122104080014026B34303432A40D20115
S11324F080208343134303222240120203480340F3
S113250013430B6270BDC04600080040FFFCFFFF90
S1132510F0B5DE4657464E464546E0B50100264B2B
S11325209B469B8A4578007842424241914688788E
S1132530CA7894460A7990464E7B0F7B8C7B8A68D6
S11325401E494A6101214A4692009146042293435E
S11325504A46134342460A40D20090460822934317
S11325604246134362460A401201944610229343A2
S113257062461343084040012022934303430F4023
S1132580BF01402083433B430E40F6014030834368
S11325903343793805402D02094803402B43214039
S11325A00903084803400B435A4693823CBC9046B7
S11325B09946A246AB46F0BD00080040982A002088
S11325C0FFF8FFFFFFEFFFFF082803D88000254B2B
S11325D01B589F46172044E0234A136A02210B43E9
S11325E0136200203DE0204A936902210B4393616A
S11325F0002036E01C4A138A02210B431382002078
S11326002FE0194A938A02210B439382002028E089
S113261016490B68022213430B60134B9A8419006A
S11326200E32CB681A42FCD0104A91680E4BD96224
S113263052689A6200229A8419001032CB681A42B6
S1132640FCD00A4B1B689BB2074A9384002008E025
S1132650054944228B5C022003438B54002000E094
S113266000207047245C000000080040982A0020E5
S1132670F0B589B0C222D2002F4B9A602F4A53681A
S11326801E218B43536002236A46137000242C4D91
S1132690E0B26946A8470134252CF9D104A80023E7
S11326A003708370802212028260C370012202715F
S11326B003738373053242704373224B984705209A
S11326C0214B98471C490222CB681A42FCD01A4A73
S11326D0938A80210B43938203A80024447001252C
S11326E085700470194B98470620174B9847184B70
S11326F0984701956B465C701C725C7205236A46B0
S1132700137069460120134FB8470120124EB04799
S1132710124B1C725C729C72DC7201956B465C708D
S113272006236A4613701472547269460020B8472F
S11327300020B04709B0F0BD00080040004000414F
S11327409929000011250000C9250000D5240000A6
S113275061270000852700003D2800000004004098
S1132760064A936908210B4393610122044B1A70B2
S113277019000B781342FCD17047C0460004004096
S1132780000C004070B5060004000D782D020543CE
S11327904B78002B02D08023DB021D434B7A002BA5
S11327A002D080231B031D434868012810D9431E0F
S11327B0184234D1022830D90223002201325B00AE
S11327C09842FBD812023243140080235B031D435A
S11327D00B7A002B02D080239B031D43134A5378AA
S11327E05BB2002BFBDB124B9847124B1E700F4A57
S11327F053785BB2002BFBDB0C4B9C601A005378C4
S11328005BB2002BFBDB094A5368802149020B4071
S11328101D435560084B984770BD0022D2E704025F
S1132820344380239B021D43D2E7C046000C004082
S1132830D5230000080C00401524000010B5040046
S11328400B4A53785BB2002BFBDB0A4B98470A4BCD
S11328501C70074A53785BB2002BFBDB044A5168B7
S113286080235B020B435360044B984710BDC04662
S1132870000C0040D5230000040C00401524000087
S113288070B504001A4A53785BB2002BFBDB194B7A
S11328909847194B1C70164A53785BB2002BFBDB2C
S11328A0134E7068C004C00E144B98470500124BB9
S11328B01C707668F602F60F114B1C700C4A5378A4
S11328C05BB2002BFBDB0A4B9C682402240C0D4BEF
S11328D09847002E07D1012C07D9210028000A4B64
S11328E09847050001E00134E540280070BDC0466A
S11328F0000C0040D5230000040C004045240000D7
S1132900080C004015240000F143000010B5040039
S1132910064B9847064B1C70064A53888021C90110
S11329200B435380044B984710BDC046D523000089
S1132930020C0040000C00401524000010B50400F7
S11329400F4B98470F4B1C700F4A53881B05180FE9
S113295053880E490B40538053880D490B405380D4
S113296011008022D2014B881342FCD106494A88C7
S113297003020648024013434B80064B984710BDA0
S1132980D5230000020C0040000C0040FFF0FFFFC4
S1132990FFBFFFFF1524000010B50C782402044388
S11329A0024B9847A4B2024B5C8010BD3D29000045
S11329B0000C004010B50400064B9847064B1C70F1
S11329C0064B5C882405240F054B98472000054BD3
S11329D0984710BDD5230000020C0040000C0040B5
S11329E0152400008128000030B5D378002B35D1A0
S11329F01378802B29D01B06802464022343547847
S1132A000225AC4306D19478002C20D18024A40262
S1132A10234341605478013C012C1CD90D042D0C36
S1132A20A024E4052C431C4384620D0CD02424060A
S1132A302C431C438462D478002C22D15B031CD524
S1132A409378012B1ED0416117E00023D7E7C024FF
S1132A50E4022343DDE70D4C2340DFE741600C042F
S1132A60240CA023DB05234383620C0CD0231B0618
S1132A7023438362D378002B03D15378013B012B8A
S1132A8002D930BD8161F8E78160FAE7FFFFFBFFFF
S1132A9010B50A00C1090023002904D14309DB0150
S1132AA005498C4663441F242040012181401800BD
S1132AB0024B984710BDC04600440041E92900007C
S1132AC07047000010B5054B9847054B9847054BD8
S1132AD09847054B9847054B984710BD7126000051
S1132AE0D1230000C12A0000C12A0000C12A00002D
S1132AF0FEE70000F8B52A4A2A4B9A4211D01A0080
S1132B00294B9A420DD2294A03339B1A9B0801335D
S1132B109B000022234822498C58845004329A4254
S1132B20FAD1234A234B9A420AD2D34321495B1850
S1132B3003218B4304339B18002102C29342FCD12E
S1132B401D4AFF211D4B8B439360FD3990235B008D
S1132B501B4AD1501B4AD3780325AB430224234399
S1132B60D370D3780C27BB4308263343D370164B5A
S1132B70987B30229043202210439873997BB94369
S1132B80314399739A7BAA4322439A730F4A536839
S1132B9080210B4353600E4B98470E4B9847FEE73A
S1132BA0705E0000000000203002002004000020BD
S1132BB0300200208C2C002000ED00E0000000001A
S1132BC000700041005000410048004100400041B5
S1132BD05D450000D54300000300064A1268002A40
S1132BE004D0044A1068C318136070470249014AAC
S1132BF01160F6E7B02A0020904C0020030008334F
S1132C004360012252428260C36003610023036077
S1132C10704700230361704743684B609A688A6079
S1132C209A685160996008610368013303607047D2
S1132C3030B50C6802000832631C02D1026904E05A
S1132C401A0053681D68AC42FAD253684B6099600D
S1132C508A605160086103680133036030BD036911
S1132C604268816891608268416851605A68904204
S1132C7005D0002202611A68501E186070478268ED
S1132C805A60F6E7034B1B68013301D072B6FEE7C6
S1132C9072B6FEE758000020064A13681868203010
S1132CA080F30988022080F314883FBCAE4662B6E4
S1132CB000BDC046B42A002010B5031F802464045C
S1132CC01C60043B1960043B02491960143B1A6000
S1132CD0403810BD852C000070470000802252054A
S1132CE0034B1A60BFF34F8FBFF36F8F7047C0461B
S1132CF004ED00E072B6044A136801331360BFF3B5
S1132D004F8FBFF36F8F704758000020064B1B682E
S1132D10002B01D172B6FEE7013B034A1360002B7E
S1132D2000D162B67047C04658000020EFF310800F
S1132D3072B67047002080F310887047EFF3098063
S1132D400E4B1A6820381060F0C044464D46564673
S1132D505F46F0C008B572B600F05CFF62B60CBC0A
S1132D60116808681030F0C8A046A946B246BB46B0
S1132D7080F309882038F0C81847C046B42A0020D8
S1132D8010B5074B98470400064B9847002803D01A
S1132D9080225205044B1A602000044B984710BD52
S1132DA02D2D00000539000004ED00E0372D000052
S1132DB010B50022074B1A600020074B9847FA21F0
S1132DC08900064B98470138054B18600722054BCC
S1132DD01A6010BD18E000E081280000F1430000F3
S1132DE014E000E010E000E010B50A4B1968FF227F
S1132DF012040A431A601968FF2212060A431A6071
S1132E00054B98470022054B1A60054B9847054B24
S1132E109847C04620ED00E0B12D00005800002086
S1132E20992C0000852C000070B504001500026C7C
S1132E30002A0BD10368002B04D14068174B984734
S1132E4000236360A36B0133A36370BD002D0DD118
S1132E508068134B9847A368226C94466344A3602C
S1132E6062689342EED32368A360EBE7C0680C4B1F
S1132E709847236C5B42E268D218E26021688A4278
S1132E8003D2626894466344E360022DDAD1A36BF3
S1132E90002BD7D0A36B013BA363D3E7E53F00002E
S1132EA0A545000010B582B001900A00C46C002C46
S1132EB005D0A16BE36B994203D372B6FEE772B6F9
S1132EC0FEE7A16B00208B4201D802B010BD01A91E
S1132ED02000064B98470020636A002BF5D02000A1
S1132EE02430034B9847431E9841EEE7292E0000F7
S1132EF0153E000070B50C00016800290BD0026C6F
S1132F00C3689B18C3604568AB4200D3C160C16805
S1132F102000014B984770BDA5450000F8B504009A
S1132F20254B9847A36C002B1EDD244D244E0DE049
S1132F30636A002B18D020002430B047002810D139
S1132F40A36C013BA364A36C002B0DDDE36C002B8D
S1132F50EED000212000A8470128F1D1194B984751
S1132F60EEE7184B9847EBE701235B42A364164B4B
S1132F709847114B9847636C002B16DD2369002B8F
S1132F8013D0250010350E4F0E4E08E0636C013B44
S1132F906364636C002B08DD2369002B05D02800D3
S1132FA0B8470028F2D0B047F0E701235B426364DE
S1132FB0054B9847F8BDC046F52C0000A52E00002F
S1132FC0153E00002D3F00000D2D000070B50400DB
S1132FD00D00002820D0174B98472268216CE36B22
S1132FE04B43D01860600020A063A2605B1AD31822
S1132FF0E36001235B426364A364002D11D1236960
S1133000002B05D0200010300B4B9847012805D029
S11330100A4B9847012070BD72B6FEE7084B9847EB
S1133020F6E720001030074DA84720002430A847B9
S1133030EEE7C046F52C0000153E00000D2D000003
S1133040DD2C0000FD2B000070B505000E000028EB
S113305019D050200D4B9847041E14D030006843FB
S113306001300A4B98472060002809D0E5632664A4
S113307001212000064B98470023E364200070BD23
S11330802000044B984772B6FEE7C0461D150000A9
S1133090CD2F00001D160000F0B5CE46474680B582
S11330A085B004000F0001921D0000280CD00029F7
S11330B00CD0022D0FD0484B9847002810D1019B0B
S11330C0002B11D072B6FEE772B6FEE7036C002B3C
S11330D0EFD072B6FEE7E36B012BECD072B6FEE7DD
S11330E000263E4B984647E00026FAE72A003900BE
S11330F020003B4B9847E36C002B0FD029002000A5
S1133100384B9847012801D1374B9847374B98479C
S1133110012005B00CBC90469946F0BD636A002BB3
S1133120F4D020002430324B98470128EED12E4BA6
S11331309847EBE72D4B98470020EAE72B4B98473D
S113314001A902A82B4B984700283ED1234B98474E
S1133150A36B9946E66B254B9847B1452FD12000C8
S113316010300199244B98472000244B9847244B56
S11331709847002820D00126C047A36BE26B9342F6
S1133180B4D3022DB2D0019B002BD3D0002E02D198
S113319002A81C4B9847154B98471B4B98470F4B5D
S11331A09847636C013301D100236364A36C01333A
S11331B0C4D10023A364C1E70B4B9847DBE720008D
S11331C00E4B98470E4B9847D5E720000B4B98477A
S11331D00B4B984700209CE7453F0000F52C00006E
S11331E0292E0000A52E0000DD2C00000D2D00006E
S11331F0153E0000BD3E00007D3D00001D2F000077
S1133200293A00009D3E0000D538000070B55020DA
S1133210104B9847041E1AD0002343600360836058
S1133220C36083630122C2630364023A426482641A
S1133230C3641030084DA84720002430A847002359
S1133240002200212000054DA847200070BD72B661
S1133250FEE7C0461D150000FD2B0000993000005C
S1133260F0B583B004000F0016001D00002811D033
S1133270002911D0022D14D0264B98470190A36B3E
S1133280E26B9A422ED800250198234B98472800D8
S113329003B0F0BD72B6FEE7036C002BEAD072B641
S11332A0FEE7E36B012B19D072B6FEE70125636AD2
S11332B0002BE9D020002430184B98470028E3D095
S11332C0002E09D001233360DEE7A36C0133A3642D
S11332D00125D9E70125D7E70125D5E70D4B984707
S11332E00190A36B2A00390020000D4B9847A36C72
S11332F00133EAD1E36C002BD8D029002000094B1C
S1133300984701250128BFD1002EE3D00123336063
S1133310BAE7C0462D2D0000372D0000153E0000F1
S1133320292E0000A52E0000F0B5C64600B584B0D5
S113333004000E0001921F0000280AD000290AD0C0
S11333404D4B984700280BD1019B002B0CD072B633
S1133350FEE772B6FEE7036C002BF1D072B6FEE70F
S11333600025464B984642E00025FAE7E56831001F
S11333702000434B9847002F1AD1A36B013BA36352
S11333802368002B02D13F4B984760602369002BD0
S113339007D0200010303C4B9847012801D13B4B0B
S11333A098473B4B9847012004B004BC9046F0BDBD
S11333B0E560636A002BF4D020002430324B984738
S11333C00028EED0314B9847EBE7314B984700206B
S11333D0EAE72A4B984760682E4B98472C4B98474E
S11333E033E020002C4B98472C4B98470125C047CD
S11333F0A36B002BBAD1019B002BE6D0002D02D188
S113340002A8274B9847224B9847264B98471B4BBB
S11334109847636C013301D100236364A36C0133C7
S113342001D10023A3641A4B984701A902A81E4B9B
S11334309847002818D1114B9847A56B144B98470F
S1133440002DCED12368002BC3D020002430019955
S1133450164B98472000104B9847104B984700286C
S1133460C4D10A4B9847C1E720000B4B98470B4B3C
S11334709847002098E7C046453F0000F52C00001F
S1133480F52E0000393F0000153E0000DD2C000041
S11334900D2D0000653F00001D2F0000293A00009B
S11334A09D3E0000D5380000BD3E00007D3D00007B
S11334B010B5041E01D172B6FEE7034B9847A46B06
S11334C0024B9847200010BDF52C00000D2D000084
S11334D010B50A4B1B68002B09D00123074CDA00F6
S11334E0A258002A04D00133102BF8D110BD0023B8
S11334F0024ADB009950D3185860F7E7082C0020E3
S113350070B504000D000E4B9847636C01330BD06B
S1133510A36C01330BD00B4B9847A36B002B09D042
S11335202000094B984770BD00236364F0E7002333
S1133530A364F0E7200024302900044B9847EFE708
S1133540F52C00000D2D00001D2F0000D53D0000BE
S113355000280CD0084A00214369934205D1836AAC
S1133560064A934205D0594259410800704772B641
S1133570FEE70021F9E7C046802B0020682B0020DD
S1133580084B1B681B68002B07D0064B1B68DB68C5
S1133590DB685A68044B1A60704701225242024B9E
S11335A01A60F9E7B82A00205C00002010B5040076
S11335B00E4B1B6858600E4B1B6898420DD30D4B85
S11335C018680A4B196804310B4B98470B4B1B685E
S11335D09C4209D2094B1C6006E0094B1868034B56
S11335E019680431044B984710BDC046B42A002022
S11335F0A82B0020B82A0020312C00005C000020F9
S1133600BC2A0020F0B5D64600B582B005000F00F4
S113361016000193089B9A46002803D0042B03D973
S113362072B6FEE772B6FEE740205A4B9847041E76
S11336300DD00A9B002B00D094E0B000554B984766
S11336402063002800D08FE02000534B98470120CE
S1133650404277E0013701338B4204D03878187048
S113366038780028F6D100223B23E2545346E36223
S1133670E363231D00931800484FB8472000183017
S1133680B8472461052352469B1AA3616462019AD8
S113369029003000424B98472060099B002B00D042
S11336A01C60404B9847404A1368013313603F4BFA
S11336B01B68002B4AD13D4B1C601368012B1FD1A2
S11336C03B4E30003B4DA84730001430A847300033
S11336D02830A84730003C30A84730005030A84775
S11336E0354F3800A847354E3000A8473448A8471E
S11336F03448A8473448A847344B1F60344B1E60F5
S1133700344A136801331360E36A334A12689342FC
S113371001D9314A13609800C0188000244B18184E
S113372000992E4B98472E4B98472E4B1B6801202F
S1133730002B07D01D4B1B68DB6A9A4502D92A4B24
S11337409847012002B004BC9246F0BD254B1B688B
S1133750002BD5D1154B1B68DB6A9A45D0D3134B8C
S11337601C60CDE70A9B0363204BF3189B00226B7C
S113377094466344072293431E003A783423E25468
S11337803B78002B00D16EE701372300353321004D
S11337903C3163E71D1500001D160000132C0000CA
S11337A0B92C0000F52C0000242B0020B42A0020A2
S11337B0C02A0020FD2B00003C2B0020502B0020B1
S11337C0682B0020942B0020802B0020B82A002096
S11337D0BC2A0020302B0020382B0020192C00009C
S11337E00D2D00007C2B0020DD2C0000FFFFFF3F8F
S11337F070B5041E0DD0164B1B68984208D0154BAB
S113380098472000144B9847012804D0134B98473D
S113381070BD72B6FEE7251D2800114B9847E36A78
S1133820104A1268934201D90E4A13609800C018D6
S113383080000D4B181829000C4B9847044B1B684B
S1133840E26ADB6A9A42E1D3094B9847DEE7C04655
S1133850B42A0020F52C0000513500000D2D000085
S11338605F2C0000382B0020C02A0020192C0000F7
S1133870DD2C000010B584B0002303930293019360
S11338800093802292000C490C480D4CA04701285B
S113389003D000280ED172B6FEE70A4B98470128E0
S11338A0F7D172B60122084B1A600022074B1A6046
S11338B0074B984704B010BD485C0000853B0000EE
S11338C005360000F54000007C2B0020A82B0020CA
S11338D0E92D0000024A1368013313607047C046A3
S11338E02C2B002010B5044B9847044B1C68044B48
S11338F09847200010BDC046F52C0000A82B0020DE
S11339000D2D0000F0B583B0394B1B68002B61D13D
S1133910384B1A6801321A601E68002E12D1364BD9
S11339201B681B68002B01D072B6FEE7324A11688F
S1133930324B186810601960314A13680133136000
S1133940304B9847304B1B6800249E4233D30024ED
S1133950294F3B681B68002B29D0274B1B68DB6869
S1133960DD686B689E4232D32B1D01931800274BF0
S11339709847AB6A002B03D028001830234B984794
S1133980EB6A234A1268934201D9214A13609800D2
S1133990C01880001F4B181801991F4B98471F4BE4
S11339A01B68EA6ADB6A9A42D3D30124D1E7012275
S11339B05242154B1A60194B1B68DA6A93009B1824
S11339C09B00144A9B58012B09D9012407E00E4A95
S11339D01360F0E7124A1368013313600024114B9B
S11339E01B68002B00D00124200003B0F0BDC046AA
S11339F02C2B0020A82B0020B82A0020BC2A002051
S1133A00642B0020813500005C0000205F2C000046
S1133A10382B0020C02A0020192C0000B42A0020D2
S1133A20282B0020AC2B0020F8B5314B1B68002B51
S1133A3001D172B6FEE72F4B98472D4B1A68013A15
S1133A401A601B680024002B03D12B4B1B68002B2E
S1133A502AD12A4B98472000F8BD9800C01880004E
S1133A60274B18182900274B9847274B1B68FA6ADD
S1133A70DB6A9A4214D23368002B18D0E368DF68FB
S1133A8038001830214B98473D1D28001F4B98479C
S1133A90FB6A1F4A12689342DFD91D4A1360DCE7B0
S1133AA001221C4B1A60E6E71B4E3400E3E71B4B74
S1133AB01B68002B13D0194B1B68002B0FD0184E1A
S1133AC0144D164C05E02368013B23602368002B4A
S1133AD005D0B0470028F6D001232B60F3E70D4B47
S1133AE01B680024012BB4D10E4B98470134B0E776
S1133AF02C2B0020F52C0000242B00200D2D000081
S1133B00C02A0020192C0000B42A00205F2C0000D9
S1133B10382B0020AC2B0020682B0020282B002001
S1133B2005390000DD2C000010B5041E16D00D4B25
S1133B301B68002B01D072B6FEE70B4B98470B4B6A
S1133B401B68E4180A4B186804300A4B9847200095
S1133B50094B9847094B9847002801D1084B9847CF
S1133B6010BDC0462C2B0020D5380000A82B002007
S1133B70B42A00205F2C0000AD350000293A000073
S1133B80DD2C0000F8B5CE46474680B5164B984666
S1133B90164F174E26E0174B1B68012B20D82B68B5
S1133BA0002BF8D0C0473C68B047002CF7D0124B2C
S1133BB098470E4BDB68DC68201D104B9847104A71
S1133BC01368013B13600F4A1368013B13600E4BEB
S1133BD09847206B0D4B994698472000C847DEE76D
S1133BE00B4B9847074DDAE7D5380000942B00209B
S1133BF0293A0000C02A0020F52C00005F2C0000A8
S1133C00242B0020342B00200D2D00001D16000055
S1133C10DD2C000010B5264B1B68002B21D100229F
S1133C20244B1A60244B1A6893009B189B00234A68
S1133C309B58002B19D1204B1B68002B0FD01E4A18
S1133C401E4C10001368013B136011688B005B1855
S1133C509B001B59002B08D10368002BF2D172B6CC
S1133C60FEE70122134B1A6010BD134B1A68134868
S1133C7093009918890041184C6864684C609B183B
S1133C809B000833C3189C4209D093009A189200F1
S1133C900A4B9A185368DA68094B1A60E4E76068BB
S1133CA093009B189B000549CB185860EDE7C0466C
S1133CB02C2B0020AC2B0020382B0020C02A002005
S1133CC0B42A002070B50500204B98472C1E19D04B
S1133CD0251D28001E4B9847A36A002B03D0200003
S1133CE018301B4B984729001A481B4B98471B4B0D
S1133CF098471B4B1B689C4207D01A4B1B68002B30
S1133D001DD170BD164B1C68E2E7164B1B68002BD7
S1133D1008D0154B1B68002B01D072B6FEE7134B7D
S1133D209847EEE7124B1B680A4A12689A4202D07F
S1133D30104B9847E5E70022094B1A60E1E7034B73
S1133D4098470D4B9847054B9847DAE7F52C000048
S1133D505F2C0000802B0020192C00000D2D00008A
S1133D60B42A00207C2B00202C2B0020DD2C00000A
S1133D70242B0020153C00008135000070B50C0098
S1133D80002810D00C4D296818310C4B984728682E
S1133D9004300B4B9847631C07D00A4B1868201853
S1133DA0094B984770BD72B6FEE7034B196804319E
S1133DB00648074B9847F5E7B42A0020312C000049
S1133DC05F2C0000A82B0020AD350000802B0020C4
S1133DD0192C000070B50D00002801D172B6FEE761
S1133DE0074C21681831074B984720680430064B6C
S1133DF09847064B18684019054B984770BDC04654
S1133E00B42A0020192C00005F2C0000A82B0020ED
S1133E10AD35000070B5C368DC68002C27D02500E0
S1133E2018352800154B9847154B1B68002B20D1DB
S1133E30251D2800114B9847E36A124A12689342E1
S1133E4001D9104A13609800C01880000E4B18184E
S1133E5029000E4B98470E4B1B68E26ADB6A002070
S1133E609A4203D901220B4B1A60013070BD72B61D
S1133E70FEE729000848054B9847ECE75F2C000053
S1133E802C2B0020382B0020C02A0020192C0000E5
S1133E90B42A0020AC2B0020682B0020002806D078
S1133EA0044B1B680360044B1B684360704772B685
S1133EB0FEE7C046642B0020A82B002070B5040048
S1133EC00E0000281AD000291AD0134B9847134B20
S1133ED01A683368591C1DD0114909682068884242
S1133EE003D0012561688A4204D26168501A012511
S1133EF0834207D80B4B9847280070BD72B6FEE783
S1133F0072B6FEE79B1A5B1833602000064B984795
S1133F100025EFE70025EDE7F52C0000A82B002095
S1133F20642B00200D2D00009D3E00000122014B5A
S1133F301A607047AC2B0020014B18687047C046CC
S1133F40B42A0020054B1B680120002B04D0044B2D
S1133F5018684342584140007047C0467C2B0020FB
S1133F602C2B002070B5041E1AD0C26A184B1B6893
S1133F70DB6A9A4214D28369002B05DB144B1B685D
S1133F80D96A05235B1A836193009B189B00114A2D
S1133F90D31862699A4204D00D4B1B68DB6AE36252
S1133FA070BD251D28000C4B9847094B1B68DB6A24
S1133FB0E3620A4A1268934201D9084A13609800DE
S1133FC0C0188000034B18182900054B9847E7E7F1
S1133FD0B42A0020C02A00205F2C0000382B0020C7
S1133FE0192C000070B5041E1DD0C36AC26B934225
S1133FF019D0051D28000C4B9847E06BE062A369BB
S1134000002B02DB05231B1AA361084B1B68984293
S113401001D9064B1860830018188000044B181847
S11340202900044B984770BD5F2C0000382B0020FA
S1134030C02A0020192C000010B541600061914293
S11340400BD8D21A012483699A4211D2011D094B5B
S11340501868094B984700240AE09A4202D20124C6
S1134060994205D2011D054B1868034B984700245B
S1134070200010BDB42B0020312C0000B02B0020F8
S113408070B5114B9847114B1B68002B02D0104B95
S1134090984770BD0F4D28000F4EB0470F4C2000BD
S11340A0B0470F4B1D600F4B1C6000220C210220F7
S11340B00D4B9847054B1860002803D00B490C4B57
S11340C09847E4E772B6FEE7F52C0000E42B0020E5
S11340D00D2D0000B82B0020FD2B0000CC2B002060
S11340E0B02B0020B42B002049300000785C000085
S11340F0D134000010B584B00B4B98470B4B1B68B0
S1134100002B0FD0002303930293019302330093F7
S11341100023502206490748074CA047002801D035
S113412004B010BD72B6FEE781400000E42B00200D
S1134130805C0000594200000536000030B585B0AF
S11341401D00134B1C68002C20D001910292039097
S1134150052913DC0F4B9847022807D00C4B18682D
S11341600023002201A90C4CA0470DE0084B18685D
S11341700023089A01A9084CA04705E000232A005F
S113418001A92000054CA04705B030BD0020FBE785
S1134190E42B0020453F000099300000613200000C
S11341A0F0B5D6464F464646C0B582B08146234B4D
S11341B098478046224B1B68984217D300234A46EF
S11341C013601F4B42461A60404602B01CBC904626
S11341D09946A246F0BD00230093524600212000D8
S11341E0184CA047002803D172B6FEE7164E174FAD
S11341F033681A68002A18D0DB681A689246DC68AB
S1134200251D2800B8472000636A9847E369012BFD
S1134210EED1A36953449A45DDD2636024610A4B0D
S1134220186829000A4B9847E2E70A4A06491068C9
S11342300860136001234A461360C2E7E5380000B2
S1134240E02B00203D410000B02B00205F2C00003B
S1134250312C0000B42B0020F0B589B0504F514BE5
S11342601B681A68002A00D18CE0DB681D684E4B7D
S1134270984705A84D4B98470400059B002B00D098
S11342808BE0A84225D2291B494B1868494B984713
S1134290494B9847002840D0454D484C0023002204
S11342A005A92868A0470028D9D0059B0393002BB3
S11342B0F4DB079E7369002B01D0301DB84704A8B6
S11342C03A4B9847059B092BE8D89B003C4AD358A6
S11342D09F46394B9847334B1B68DB68DE68301DBB
S11342E02F4B9847F369012B03D0736A300098472A
S11342F0D2E7B369E9182B0022003000314CA04703
S11343000128F2D1002300932A00002130002E4C12
S1134310A0470028E9D172B6FEE72C4B9847BBE7CB
S1134320069BB269944663441900069B0200300060
S1134330244CA0470128B0D13000736A9847F36930
S1134340012BAAD1069BB1698C4663441A00002351
S11343500093002130001C4CA04700289DD172B668
S1134360FEE70699B161002906D041180300020056
S11343703000144CA04790E772B6FEE73000144BAF
S113438098478AE7084B984705A8084B98470400C4
S11343900025059B002B00D175E7074B98477BE769
S11343A05F2C0000B02B0020D5380000A141000094
S11343B0E42B002001350000293A000029330000D5
S11343C0505C0000394000003D410000DD2C00003D
S11343D01D16000010B5034B9847034B9847034B39
S11343E09847FEE7C52A00009918000075380000B8
S11343F0002243088B4274D303098B425FD3030A20
S11344008B4244D3030B8B4228D3030C8B420DD332
S1134410FF22090212BA030C8B4202D312120902C0
S113442065D0030B8B4219D300E0090AC30B8B42FE
S113443001D3CB03C01A5241830B8B4201D38B03AC
S1134440C01A5241430B8B4201D34B03C01A524151
S1134450030B8B4201D30B03C01A5241C30A8B4294
S113446001D3CB02C01A5241830A8B4201D38B027F
S1134470C01A5241430A8B4201D34B02C01A524123
S1134480030A8B4201D30B02C01A5241CDD2C30995
S11344908B4201D3CB01C01A524183098B4201D311
S11344A08B01C01A524143098B4201D34B01C01AFC
S11344B0524103098B4201D30B01C01A5241C30874
S11344C08B4201D3CB00C01A524183088B4201D3E3
S11344D08B00C01A524143088B4201D34B00C01ACF
S11344E05241411A00D20146524110467047FFE73B
S11344F001B5002000F006F802BDC0460029F7D03F
S113450076E770477047C046F0B5CE464746150477
S11345102D0C2E0080B50704140C3F0C9946030C97
S11345207E435D43674363437F19340CE4199C461F
S1134530A54203D980235B029846C4444B465143A9
S113454043433604360C250C24046544A419591835
S1134550491920000CBC90469946F0BD70B5002660
S11345600C4D0D4C641BA410A64209D1002601F089
S11345706FFC0A4D0A4C641BA410A64205D170BD01
S1134580B300EB5898470136EEE7B300EB58984771
S11345900136F2E75C5E00005C5E00005C5E0000D9
S11345A0605E0000002310B59A4200D110BDCC5CBF
S11345B0C4540133F8E703008218934200D17047D2
S11345C019700133F9E700000EB410B59DB002A9CB
S11345D0029008610B4882248860486101204042AF
S11345E01FABC881084804CBA400006801938C81E8
S11345F000F0D2F80023029A13701DB010BC08BC5E
S113460003B01847FFFFFF7F600000200EB4812332
S113461070B59DB002AC21AD9B0040CDA38102904A
S1134620069000F025F80B4B606063620023606124
S113463009486363A364013BE38132002B0021003A
S11346400068019500F008FA1DB070BC08BC03B006
S11346501847C0465D4600006000002000207047F7
S1134660031C0A7801311A700133002AF9D170470A
S11346700023C25C0133002AFBD1581E704703009B
S113468010B51C78002C07D1013A541C03D00C78C7
S11346901C70002C02D110BD0133F2E7002A00D1B6
S11346A05A7001330131EFE770B50400002A00D1DC
S11346B070BD0D78561E631C25700131002D05D187
S11346C0A4189C42F4D01D700133FAE71C00320098
S11346D0ECE70000F0B58E6885B007000C0003928B
S11346E001939E4239D890238A89DB001A4234D040
S11346F00325096923685B1A0293636902985D4381
S1134700EB0F5D19019B6D1001331B18AB4200D9EF
S11347101D00530532D52900380001F039F8061E72
S113472009D10C233B6040230120A289404213435A
S1134730A38105B0F0BD029A2169FFF733FFA38975
S1134740144A1A4080231343A381029B2661F6185E
S113475026606561019EED1AA560019BB34200D2FB
S11347601E0032000399206800F0B5FFA368002002
S11347709B1BA36023689E192660DAE72A00380091
S113478001F064F8061EE0D12169380000F0B6FF9C
S1134790C7E7C0467FFBFFFFF0B59FB002900593CB
S11347A08B890F0016001B0611D50B69002B0ED147
S11347B0402100F0EDFF38603861002805D10C235A
S11347C0029A013813601FB0F0BD40237B610023BF
S11347D006AD6B6120336B761033AB7634002378EF
S11347E0002B47D1A31B04930DD0A31B3200390027
S11347F00298FFF76FFF431C00D1B5E06A69049B80
S1134800944663446B612378002B00D1ACE0012211
S1134810002352426A6002A95432521801342B60B8
S1134820EB60AB601370AB65584E05222178300005
S113483000F046FF621C002820D12968CB0604D56D
S1134840532302AE20309B1918700B0704D5532351
S11348502B2002AE9B19187023782A2B16D0002027
S11348600A21099B2278303A092A55D9002815D003
S1134870099313E0252BB5D00134B0E70123801B45
S11348808340296814000B432B60CDE7059B181D5A
S11348901B680590002B39DB0993140023782E2B19
S11348A00BD16378621C2A2B3ED1059B02341A1D5E
S11348B01B680592002B34DB0793354E21780322C5
S11348C0300000F0FDFE002806D04023801B83400A
S11348D02A68013413432B60217806222D48661C74
S11348E0297600F0EDFE002846D02B4B002B2FD16B
S11348F02968059B0722C90528D59B1893430833CB
S113490005936B69039A9B186B6167E75B42EB60E5
S113491002230B432B60C0E74B4301349B18012057
S1134920A0E701235B42C7E7002314000A201A0012
S11349306B6021783039092903D9002BBDD0079247
S1134940BBE74243013452180123F2E70733D5E7AA
S113495005AB00933A00114B2900029800E000BF18
S11349600390039B0133CCD1BB890B985B0600D425
S113497029E70120404226E705AB00933A00074BA4
S11349802900029800F05CFAEAE7C046885C00005F
S11349908E5C0000925C000000000000D546000020
S11349A070B514004B1C03D101256D42280070BD65
S11349B0938920229343626BA381CEB2CDB2636804
S11349C0002A10D0A26B934207DA2368013B2360CC
S11349D01E70636801336360E8E7210000F00EFE97
S11349E00028F2D0E0E721692268002907D091422B
S11349F005D2511E0878854201D12160EAE723647B
S1134A002300443363630323A36323004633E26335
S1134A101E7023600123DEE710B50C00496B0029EA
S1134A200ED023004433994201D000F067FE0020E9
S1134A30236C60636360834202D0E36B236010BD28
S1134A402369012023600023A28963602033134378
S1134A50A3814042F3E70000F0B5BD4C8625A54490
S1134A60039300234893499305AB4A93BE236D00F7
S1134A7000900C0002A8B7495B004019C027C15040
S1134A8002AB5B191500B4497F00D9512B78002B78
S1134A9000D15BE100F0F4FD08222B78C0180193EB
S1134AA04378134041D1019A6E1C252A00D0A8E016
S1134AB0479345936B782A2B02D11A3B4593AE1C3E
S1134AC035000A2229780B00303B092B48D9A34E24
S1134AD00322300000F0F4FD002807D00123801BDE
S1134AE08340459A01351343029245932B786E1CFB
S1134AF0672B58D8652B00D3DDE0472B38D8452BDE
S1134B0000D3D8E0002B00D11DE1252B79D003235D
S1134B104B930733469353E0499A01330192013290
S1134B20499262682360013A62606368002B0BDD7E
S1134B3000F0A6FD082123681A78801842780A42FA
S1134B40EAD16E1C3500A1E7862202AB52009B1805
S1134B50DB5921000098019398470028E8D0F0E73A
S1134B60479B013502935343303B59184791A9E7BA
S1134B705B2B00D177E00FD8582BC8D1459A01920E
S1134B808022019992000A43459210224692032200
S1134B906E2B14DD013212E0632B00D171E0642B23
S1134BA0B5D10A22F2E7702B52D022D86E2B00D155
S1134BB06FE054D8692BAAD10023032246934B9269
S1134BC06368002B00DC78E0459B01935B0600D40E
S1134BD08BE04B9B022B00DD9DE003AB220045A93B
S1134BE0009800F047FA012800D1AFE00228A9D1CB
S1134BF025E0752BD5D0782BC0D0732B87D1022319
S1134C003DE06368002B0FDD236801991A78914217
S1134C1000D09BE0013362682360499B013A019311
S1134C200133626049938DE7862202AB52009B18E0
S1134C30DB5921000098029398470028E4D0489853
S1134C40002800D07BE00138A7239B009D44F0BDE1
S1134C50459A0192202201990A4345928EE708233E
S1134C6004224693ABE7310005A800F067FB459B9F
S1134C70060001934023019A1343459301234B9368
S1134C809EE7459B01934023019A134345930023D8
S1134C90F5E74599CB0600D554E7039B499AC80725
S1134CA004D5191D03911B681A804BE7191D039144
S1134CB01B681A6046E70523E1E7862202AB52002F
S1134CC09B18DB592100009801939847002800D1D4
S1134CD07AE7B4E7499A0192013249926268013A4B
S1134CE06260002A0BDD0133236000F0C9FC082157
S1134CF023681A78801842780A42EBD169E7862241
S1134D0002AB52009B18DB5921000098019398478D
S1134D100028EAD093E7042B06DC03AB220045A964
S1134D20009800F00BFA5EE70D4B002B00D109E769
S1134D3003AB220045A9009800E000BF53E7A38914
S1134D405B0600D480E7012040427DE748987BE77A
S1134D5064FDFFFFA1490000194A00008E5C0000B9
S1134D6000000000F7B5150001938A680B690090F4
S1134D700C00934200DA130022002B6043321278B5
S1134D80002A01D001332B6023689B0602D52B68CF
S1134D9002332B60062723681F4027D023004333A8
S1134DA01B785A1E93412268920630D4220001993E
S1134DB043320098089EB047431C25D00623206840
S1134DC02A68E16803400025042B03D18D1AEB43C4
S1134DD0DB171D40A3682269934201DD9B1AED187D
S1134DE00027BD4220D1002010E00137E3682A6883
S1134DF09B1A9F42D2DA22000123193201990098AA
S1134E00089EB047431CF0D101204042FEBD302033
S1134E10E1184331087021005A1C45310978A21861
S1134E20433202331170C1E7220001231A3201997F
S1134E300098089EB047431CE6D00137D1E7000034
S1134E40F0B58BB006920A004332079305900492A2
S1134E500A7E0C00109B6E2A00D18FE017D8632ABB
S1134E602CD008D8002A00D199E0582A54D0260022
S1134E704236327029E0642A01D0692AF7D12168C8
S1134E801A68080623D5111D1960156825E0732AD0
S1134E9000D188E008D86F2A29D0702AE7D12022CF
S1134EA009680A43226003E0752A20D0782ADED1FB
S1134EB022007821453211706C4A30E00E001A68E5
S1134EC04236111D196013683370012379E04906D5
S1134ED0D9D5111D19600023D55E002D03DA2D23C9
S1134EE0049A6D421370624B0A2703932FE02068E3
S1134EF01968050603D5081D18600D6805E040060D
S1134F00F9D50D68081D1860ADB2594B08270393F5
S1134F106F2A18D00A2716E045310A70544A0392C2
S1134F201A682168101D18601568080622D5CB0779
S1134F3002D52023194321601027002D03D12023FB
S1134F4022689A4322602300002243331A70636864
S1134F50A360002B5CDB0422216891432160002DB7
S1134F6058D1049E002B64D02600039B42361B7844
S1134F7033705EE04806DAD5ADB2D8E709681A683E
S1134F80080605D5111D1960136862691A6006E0E8
S1134F904906F7D5111D19601368A28A1A800023E7
S1134FA0049E236154E01A68111D196016680021DB
S1134FB06268300000F084FB002801D0801B606030
S1134FC0636823610023049A137041E0236932006B
S1134FD006990598079DA847431C43D023680025DC
S1134FE09B070FD4099BE06898423DDA18003BE028
S1134FF022000123193206990598079EB047431CE5
S113500030D00135E368099A9B1A9D42F0DBE9E749
S1135010002DA9D0049E28003900FFF76FFA039BE6
S1135020013E5B5C280033703900FFF7E1F9051E8F
S1135030F1D1082F09D12368DB0706D563682269FB
S1135040934202DC3023013E3370049B9B1B23619B
S1135050079B09AA00932100069B0598FFF782FE8F
S1135060431CB3D1012040420BB0F0BDAA5C000048
S1135070995C0000F7B515008A6801900C00002ABD
S113508006D18A69511E8A41012152420A43A26013
S11350902268D20603D41A68111D19601768002605
S11350A0A369002B1CD0012B08D12B6862691B78E3
S11350B0D35C002B14D1002E30D106E0022B06D095
S11350C0002E2BD1A369012B28D10120FEBD00F0B5
S11350D0D7FA08222B681B78C01843781342EFD103
S11350E0102223680136134203D12B681B783B70CE
S11350F001372A686B6801322A60A268013B013AD1
S11351006B60A260002A09D0002BC9DCC0235B00BD
S1135110E3582900019898470028C1D01023226839
S1135120134006D1E2680132E260A269002A00D08D
S11351303B70236900209E192661C7E7F0B50C0077
S11351408DB00293774B0590160009AA23CB23C296
S1135150754B0693A369032B01D0744B0693AE22BF
S11351600020A3685200591E0490914205D95E3B69
S1135170FF3B04935E23FF33A36023001C3301939E
S1135180D023002722681B0113432360019B039350
S1135190336809A81978BB000222185800F090FA65
S11351A000282BD0012F5FD16368002B06D1083370
S11351B022686360F933FF33134323605C4B226836
S11351C013402360A3685A1EA260002B16D0039BD1
S11351D05D1C33685A1C32601B78039A0395137064
S11351E07368013B7360002B08DCC0235B00E35849
S11351F0310005980793984700287DD10137032F84
S1135200C6D16368002B01D10A33636010210027E3
S113521063686069C91A474BC91800F08FF8039D89
S1135220A368002B41D0326860691178405C002883
S11352303BD0302928D1802021680001014223D0AD
S1135240049A0137002A03D0013A01330492A3607F
S11352507368013B7360002B1EDD336801333360D8
S1135260A368013BA360DBE7022FABD1C0218023FD
S11352702268C90011409B009942C2D1F13BFF3B17
S11352806360F03313439CE721682B4B0B4023608E
S113529013782B700135DBE7C0235B00E358310042
S11352A00598039398470028DAD02368DB050ED5C8
S11352B0019B9D4207D9BE23013D5B002978E35839
S11352C0320005989847019B01209D4227D0102267
S11352D023681A401CD12A70636801990598069EB8
S11352E0B047029B22681B68910607D502991A1DD4
S11352F00A601B68186008E00027D6E7D107F5D5D7
S113530002991A1D0A601B681880E3680133E36080
S11353100020019BED1A2369EF19DF1927610DB0F5
S1135320F0BDC046BC5C0000AD540000DD5500007B
S1135330FFFAFFFFC85C0000FFF6FFFF70B50B78B3
S11353405E2B0DD04A1C00210400451CFF35217042
S11353500134A542FBD1002B06D1013A100070BDE7
S11353608A1C4B780121EFE701244C401100C454FE
S11353700D784A1C2D2D07D05D2DEFD0002D01D1C5
S11353800A00EBE72B00F1E74E785D2EFAD0B3422A
S1135390F8DC02310133C4549E42FBDCE8E7000030
S11353A0F0B51F000E0087B00590039102920C988F
S11353B0347800F061F9082200194378751C134011
S11353C00CD12D2C0CD101332C780193B51C002F5A
S11353D00CD0102F14D1302C0AD011E02E00E6E7A7
S11353E001932B2CF3D12C78B51CF0E7302C2FD162
S11353F020222B789343582B51D110276C780235F7
S1135400019B294A39009E183000FFF777F83000D5
S113541004913900FEF7ECFF012100234942020008
S11354208C46180021003039092913D80C00A742F2
S11354301CDD591C09D06346824206D302D104996B
S1135440A14202DB0123784320182C780135E9E7D7
S11354500A27D5E721004139192901D8373CE6E765
S113546021006139192901D8573CE0E75A1C08D1B9
S1135470059A23331360029B3000002B0BD107B035
S1135480F0BD019A002A00D04042029A002AF6D0C8
S1135490039A002B00D06A1E029B1A60EFE73024A7
S11354A0002FADD10837ABE7FFFFFF7F13B5054CE5
S11354B02468246A002C00D1034C0094FFF770FF89
S11354C016BDC04660000020C4000020F0B51F00D7
S11354D00E0087B00590039101920C98347800F087
S11354E0CBF8082200194378751C13400CD12D2CDD
S11354F00CD101332C780293B51C002F0CD0102F43
S113550014D1302C0AD011E02E00E6E702932B2CA4
S1135510F3D12C78B51CF0E7302C2FD120222B7836
S11355209343582B54D110276C780235012039004D
S11355304042FEF75DFF0600012039004042FEF7BD
S1135540DDFF002304910121012218008C46524200
S113555021003039092913D80C00A7421EDD002B85
S11355601ADB1300864206D302D10499A14202DB5E
S11355706346784320182C780135E9E70A27D5E7F4
S113558021004139192901D8373CE6E72100613966
S1135590192903D8573CE0E71300ECE7002B09DA9C
S11355A022230120059A40421360019B002B0BD15A
S11355B007B0F0BD029A002A00D04042019A002AA6
S11355C0F6D0039A002B00D06A1E019B1A60EFE705
S11355D03024002FAAD10837A8E7000013B5054CE2
S11355E02468246A002C00D1034C0094FFF76EFF5A
S11355F016BDC04660000020C40000200B00F7B5B3
S11356004D6B44330C009D421CD18026F6003100C2
S113561000F0BEF8002802D101204042FEBD230064
S11356206063A66346331A78104BC2542300453393
S11356301A780F4BC2542A780E4BC254C0182060FB
S11356400020EBE78E6B290073001A00019300F031
S1135650FDF8051EE0D08719010032003800FEF77E
S1135660A1FF019B27606563A363E9E7FF030000D3
S1135670FE030000FD030000EC30006870470000EA
S1135680044B1B681B6A002B00D1034BEC331868D6
S11356907047C04660000020C400002082B000298A
S11356A000D101A9101E06D0002B06D013780B6080
S11356B01078431E984102B0704702204042FAE736
S11356C0C9B28218904201D10020704703788B42FE
S11356D0FBD00130F6E710B5884202D98B18984206
S11356E008D300239A4207D0CC5CC4540133F9E7B1
S11356F08B5C8354013AFBD210BD000070B50500E9
S1135700002910D00C1F2368002B00DAE4182800AD
S113571000F0E0F81D4A1368002B05D163601460A3
S1135720280000F0D8F870BDA34209D92168601898
S11357308342F3D118685B6841182160EEE71300D7
S11357405A68002A01D0A242F9D919685818A0420F
S11357500BD120680918581819608242E0D11068EA
S11357605268411819605A60DAE7A04202D90C2342
S11357702B60D5E721686018824203D11068526813
S11357804118216062605C60CAE7C046E82B0020D3
S1135790032370B5CD1C9D43083506000C2D1ED285
S11357A00C25A9421DD8300000F094F8254A14684D
S11357B02100002919D1244C2368002B03D1300087
S11357C000F06AF820602900300000F065F8431CFE
S11357D02CD10C233000336000F07DF803E0002D61
S11357E0DFDA0C233360002070BD0B685B1B1AD416
S11357F00B2B03D90B60CC18256003E08C420ED12F
S113580063681360300000F066F8200007220B3054
S1135810231D9043C31AE7D05A42E250E4E74B6891
S113582063600C00EEE70C004968C2E70323C41C64
S11358309C43A042E0D0211A300000F02DF8431C14
S1135840DAD1C6E7E82B0020EC2B0020F8B50700DE
S11358500D001600002905D11100FFF799FF04007F
S11358602000F8BD002A03D1FFF748FF3400F7E712
S113587000F032F82C008642F2D931003800FFF7EC
S113588087FF041EECD029003200FEF78BFE2900AE
S11358903800FFF733FFE3E7002370B5064C05003B
S11358A008002360FDF798F9431C03D12368002BFB
S11358B000D02B6070BDC046882C00200B1E04D085
S11358C0FF2A04D98A2303608B3B180070470A70AF
S11358D00123FAE7704770470B1F1B68181F002B42
S11358E001DA0B58C018704741540D0A000000003B
S11358F03D0000000D0A4552524F520D0A000000AF
S11359000D0A00000D0A4F4B0D0A00007365726901
S1135910616C4D75746578000D0A00005C0E000022
S1135920360D00006A0D00009A0D0000060E0000FE
S11359302E130000140E0000140E00008C0E000044
S1135940BE0E0000440F00002E130000CA0D00001C
S1135950520F00001411000086120000B41200005F
S11359601E1300002E1300002E13000080100000F0
S11359702E130000440F000048110000D81100004D
S11359805C0E0000253464001B4E253178000000B5
S113599077696669000000005769666900000000C5
S11359A01B5A25317825303464000000415400002E
S11359B041544530000000004154453100000000CE
S11359C041542B574400000041542B574D00000014
S11359D041542B4E444843500000000041542B577F
S11359E05750410041542B574100000041542B4370
S11359F04944000041542B4E4354435000000000DE
S1135A0041542B42444154410000000041542B4D69
S1135A10515454434F4E4E454354000041542B4D72
S1135A205154545055424C495348000041542B4D55
S1135A3051545453554253435249424500000000C7
S1135A4041542B4D515454444953434F4E4E4543B6
S1135A505400000041542B4D51545453544F52455B
S1135A600000000041542B4D515454524553544F9F
S1135A705245000041542B4D51545450494E470057
S1135A801B5A636C6C6C6C004C69656E6F00000093
S1135A9062656C6F686F72697A6F6E74650000007E
S1135AA030000000312C25732C31000025732C2587
S1135AB0750000000D0A434F4E4E454354202563A4
S1135AC00D0A0D0A4F4B0D0A0000000025732C250A
S1135AD0752C25732C2C2C2C2C2C2C2C0000000029
S1135AE03100000025752C25732C25752C256C752B
S1135AF00000000025752C25732C25752C25752C8C
S1135B00257500003F000000746370496E000000BA
S1135B1073657269616C496E0000000054756E6EA5
S1135B20656C00002A2A2A2A2A2A2A2A2A2A2A2AA8
S1135B302A2A2A2A2A2A2A2A2A2A2A2A2A2A2A2AC1
S1135B402A2A0D0A000000002A2041504C494341F2
S1135B50C7C34F204445204558454D504C4F205411
S1135B60454C4954202A0D0A000000002A20202018
S1135B702020202020202054554E454C20544350B2
S1135B802020202020202020202A0D0A00000000B0
S1135B90496E696369616E646F2E2E2E00000000E9
S1135BA04F4B000045520000436F6E656374616E95
S1135BB0646F2E2E2E00000020204D657520495064
S1135BC03A200000436F6E656374616E646F205405
S1135BD043502E2E2E0000003139322E3136382E0D
S1135BE0302E32320000000000080042000C004257
S1135BF0001000420014004200180042001C004241
S1135C00562400005224000052240000B424000052
S1135C10B42400006A2400005C2400007024000006
S1135C20A2240000F4250000D4250000D42500009F
S1135C3060260000E625000002260000D8250000AA
S1135C40102600005026000049444C450000000086
S1135C502043000020430000204300009C42000039
S1135C60624300007C430000204300002043000006
S1135C709C42000062430000546D72510000000019
S1135C80546D722053766300232D302B2000686CF2
S1135C904C0065666745464700303132333435364B
S1135CA03738394142434445460030313233343584
S1135CB0363738396162636465660000DA5C000077
S1135CC0DD5C0000E05C0000412D46612D66383942
S1135CD030313233343536375D002B2D003030000F
S1135CE078580000000000000000000000000000E0
